:100000000C942A000C94AF000C943C000C943C001F
:100010000C943C000C943C000C943C000C943C0070
:100020000C943C000C943C000C943C000C943C0060
:100030000C943C000C943C000C943C000C943C0050
:100040000C943C000C943C000C943C000C943C0040
:100050000C943C0011241FBECFE5D8E0DEBFCDBF1D
:1000600020E0A0E6B0E001C01D92A136B207E1F7A2
:100070000E9498020C94E6020C94000060E080E07C
:100080000E94890261E080E00E94890262E080E0D3
:100090000E94890260E081E00E94890261E081E0C3
:1000A0000E94890262E081E00E94890262E083E0AE
:1000B0000E94450181E00E9457028AE00E9461028D
:1000C0000E948502089500E010E080916000813078
:1000D000A1F018F0823079F13EC061E080E00E942A
:1000E000910260E080E00E948D020E94C00281E0E7
:1000F0008093600001E010E0E8CF62E080E00E94C1
:10010000910260E080E00E949102CAE0D0E007C066
:1001100061E080E00E9495020E94D302219720971F
:10012000B9F70115110521F082E080936000CDCF71
:1001300010926000CACF61E080E00E94910262E00C
:1001400080E00E948D020E94C00281E080936000E6
:1001500000E010E0BACF81E080936000B6CF1F923C
:100160000F920FB60F9211242F933F934F935F93EB
:100170006F937F938F939F93AF93BF93CF93DF93AF
:10018000EF93FF9380E00E945702809160008230DD
:10019000B9F460E081E00E948D028AE090E003C043
:1001A0000E94D302CE01EC012197892BC9F760E0B0
:1001B00081E00E94910262E080E00E9491024CC0C6
:1001C00060E080E00E94910261E080E00E94910284
:1001D00062E081E00E948D0260E080E00E948D027A
:1001E0008AE090E003C00E94D302CE01EC01219787
:1001F000892BC9F762E081E00E94910260E080E013
:100200000E949102CAE0D0E00BC061E081E00E9450
:10021000950261E080E00E9495020E94D30221973E
:10022000209799F760E081E00E948D0262E080E013
:100230000E948D028AE090E003C00E94D302CE01AA
:10024000EC012197892BC9F760E081E00E949102BF
:1002500062E080E00E94910281E00E94570281E00A
:1002600080936000FF91EF91DF91CF91BF91AF91AB
:100270009F918F917F916F915F914F913F912F91BE
:100280000F900FBE0F901F90189540E00E944901FB
:100290000895813001F130F08230B1F1833009F4FA
:1002A0004CC00895413059F42AB381E090E002C077
:1002B000880F991F6A95E2F7822B8ABB08952AB3AB
:1002C00081E090E002C0880F991F6A95E2F780955F
:1002D00082238ABB0895413059F427B381E090E02E
:1002E00002C0880F991F6A95E2F7822B87BB089599
:1002F00027B381E090E002C0880F991F6A95E2F76A
:100300008095822387BB0895413059F424B381E05E
:1003100090E002C0880F991F6A95E2F7822B84BB98
:10032000089524B381E090E002C0880F991F6A9578
:10033000E2F78095822384BB0895413059F421B3BC
:1003400081E090E002C0880F991F6A95E2F7822B46
:1003500081BB089521B381E090E002C0880F991F0E
:100360006A95E2F78095822381BB0895813001F17F
:1003700030F08230B1F1833009F44CC0089541303F
:1003800059F42BB381E090E002C0880F991F6A9561
:10039000E2F7822B8BBB08952BB381E090E002C083
:1003A000880F991F6A95E2F7809582238BBB089589
:1003B000413059F428B381E090E002C0880F991FC2
:1003C0006A95E2F7822B88BB089528B381E090E01C
:1003D00002C0880F991F6A95E2F78095822388BB37
:1003E0000895413059F425B381E090E002C0880FB0
:1003F000991F6A95E2F7822B85BB089525B381E0AA
:1004000090E002C0880F991F6A95E2F780958223D9
:1004100085BB0895413059F422B381E090E002C0D9
:10042000880F991F6A95E2F7822B82BB089522B349
:1004300081E090E002C0880F991F6A95E2F78095ED
:10044000822382BB0895813089F028F08230C9F080
:10045000833011F108952BB381E090E002C0880F42
:10046000991F6A95E2F782278BBB089528B381E034
:1004700090E002C0880F991F6A95E2F7822788BB37
:10048000089528B381E090E002C0880F991F6A9513
:10049000E2F7822788BB089522B381E090E002C092
:1004A000880F991F6A95E2F7822782BB08958130F1
:1004B00021F48FB780688FBF08958FB78F778FBF74
:1004C0000895813069F028F08A3089F08B30B1F0DE
:1004D000089585B78E7F85BF85B78D7F85BF0895C9
:1004E00085B78E7F85BF85B7826085BF089585B744
:1004F000816085BF85B78D7F85BF089585B7816091
:1005000085BF85B7826085BF08958BB780648BBF38
:10051000089541E00E944901089541E00E94B6011A
:10052000089540E00E94B60108950E9423020895B4
:100530000E943E000E946300FDCF13BE82BF623066
:1005400099F028F4662341F0613051F0089563304A
:1005500079F0643089F0089583B7816083BF08958E
:1005600083B7826083BF089583B7836083BF089594
:1005700083B7846083BF089583B7856083BF089580
:1005800064E08CE00E949D0290E009C088B7817011
:1005900088BF813021F49F5F88B7816088BF943124
:1005A000A8F313BE089562E080E00E949D0290E0EF
:1005B0000AC088B7817088BF813021F488B7816014
:1005C00088BF9F5F83B79032A0F30895F894FFCF60
:00000001FF
